:100000000C94EA130C9412140C9412140C94121401
:100010000C9412140C9412140C9412140C941214C8
:100020000C9412140C9412140C94182D0C94872D0B
:100030000C9412140C9412140C9412140C941214A8
:100040000C9412140C9412140C9412140C94121498
:100050000C9412140C9412140C9412140C94B92FC6
:100060000C9412140C9412140C9412140C94121478
:100070000C9412140C9412140C9412140C94121468
:100080000C9403300C9412140C9412140C9412144B
:100090000C9412140C9412140C9412140C94121448
:1000A0000C9412140C9412140C9412140008FC00FA
:1000B00008F80008FC0129E04008C040180C40087E
:1000C0001E40087F7C08470C2C17066636F303E6B3
:1000D00011020F99837FCD803CC9C08063C0C021CD
:1000E00046E43740E017603F1760010778C0070813
:1000F00000030E307602929510B5059504750292B4
:100100003417B41192901101700F85500A50096F85
:100110000F85AE11AC084C036B08076B0007AA00F3
:10012000480D87628306A1128051C000FF007C0049
:10013000007F04FF0340FF0100C020800200000296
:1001400000F0C03FF0D93F0018000002000000009E
:10015000000100000000000300000300017F000018
:100160007F000000800101E00100E0017804007FD1
:1001700000007F000015019463B30573008B926348
:100180006F10CAAE10A80567090367080386E66604
:10019000018D451745158526650194C500A413A357
:1001A0000F830DA20D828A21014012FF0000000082
:1001B0000000000000F7103C9007101E0490060499
:1001C0001004FC31050011240199062411000033AC
:1001D000018011AC2A99FE3F10FC3F3079F81303DF
:1001E000FF93FFFF13FFFF330000000000800000BB
:1001F00080FFC4F816017517D4B213B00A90098FA6
:1002000037AF164D0C4D0A4D084D064D046C009746
:100210008B3388512805A8016800978737A512837A
:1002200048420CC201A10FFF0060000060000060A6
:1002300000806100806100FCE107FCE12780610033
:10024000816110830100BF6108BFE10180E101808D
:10025000E10380610080610880010080612080618D
:100260000000000C00000F00000FFFF30FFFFF0F56
:10027000770B14770A14550E550C1502B009700847
:100280008D4E13AD0C8B31A90E69088D896288ECF7
:10029000680085A7098762241184E944064405C4DF
:1002A000044402A316630DC3A2088227FF9EFFFF2A
:1002B00000007040007000C07004E07000F07040FA
:1002C000F870400C70FFFF73001070001070040095
:1002D00070040070FCFF7F00007000007000A071CF
:1002E000A0EA71E0CE7F0F007E00006000000700F2
:1002F000800F1FE0FF771714770403B507B40131AF
:1003000012510A5106500E6F14D48CACAC0A8CA357
:100310006B14D28B036A14D28A0DA901470E470DC4
:10032000A70C07008625850B4302C117A000FFF02C
:10033000FFF1F0FFF13000E03000E07074F1707414
:10034000F17077F07074F07074F07074F0F075F014
:100350007074F07060F07074F07037E07034E070BA
:1003600034E07034E1F0B5E10000E40000E00000AA
:10037000E89A97EA9A97EB56107609127608127661
:100380000712510F9127B007AF0E8F288D28AC0CA4
:100390008B27C9104908A907680E846714C48728E9
:1003A000660E848528A3144310230C430AA3060178
:1003B00001FFFFFF071F400470400697400697406B
:1003C0000197400097C001B700009700F8D70F7859
:1003D00001000821000821000CFFCF9F0000000051
:1003E000000000CC0088CE0000C00C00C00C00C093
:1003F0000C00C07C00C03800F000770D17770C1798
:1004000075160C5416B4085113B003AC144C0B4CB5
:100410000A4C098C446C00966B00968A57AA016AB4
:1004200000962716A60543100200A111C105FFFF83
:10043000FFFF0003F0000300FCFB07FCFBFFE4F3FD
:10044000FFE4F30764F00764F00764F0076400401A
:1004500064510064D00764D04764D007E4D117E446
:10046000D10700D34700D00300D0130000009FFE47
:10047000071FFE071FFE07750A127504107503108B
:10048000540754045403B307700883AB178B6F6B86
:100490000883AB076A16C5AA0DA70186CB86E4863A
:1004A000E3C503231783E183E04210420F420EA20B
:1004B0000C0206FF0000FC00001C00007800007029
:1004C000000000000000000000010000000000002B
:1004D0000006FFFF7FFFFF7F00000000000000001C
:1004E0000000C00000C0800180810180818007E0A1
:1004F0008007E08FC7E18FE7E18FF761B60C550DFC
:100500005410140172108572008D711085B105B1FF
:100510000471008D70170CB013CE0E894E892AA974
:1005200009892729016700944116A115FF867F7F5D
:10053000C6FFFFC60F0CCE0F0CC68F0DE68F1DC673
:100540009F8DC88F0DC0CF1DE08F0DC79F8DC78FAA
:100550000DC7CF1DC78F0DC79F8DC08F0DC0CF1D7D
:10056000FE8F0DFE9F8D06800D02C01D008001468E
:10057000880D06808D771703B515B50890054F0EC9
:100580008CAC4B14090186EE45F7241484ECA4E0EE
:100590004310430FC21781E5A100A017A00F80C32D
:1005A000FF00060300060300060300060B302603C7
:1005B000300603F00627F4060330061330264330D6
:1005C0000603300603B40703B027033006033006E2
:1005D00003300603342603300603300603300000E0
:1005E0003020003F2603BF2603770D1777070F77CC
:1005F0000213760D1676020F750D1535031500AE34
:1006000002AD0E8B274816C815A813880D8807A8B9
:1006100006471445154512A40EA40C83EF83EB4244
:1006200013FF1F03301E037030036336036366033A
:1006300066663E66C63C63CC18318C993198811849
:1006400018C31830C30C30660C306606003C060038
:100650003C03C01803C0991180810100C30000C38E
:1006600000006600077E07073C077700137600123C
:10067000551235115501B40BB1035014AF144F0787
:100680008B31CB078A1089328811671405040BA2BD
:1006900002A1118100A00BFFFDFF07FFFF77000003
:1006A00074FEFF75FEFF753E804506805DB6BF5D3A
:1006B000B6BF5DB63140B6F57FBEF57FBEB57106FB
:1006C000B471F6B77DF6B77D36BC7116A07116AD64
:1006D0007136AD7116AD7186BD71B60170B6FD7320
:1006E000771115770E125505940CB10C510A8F0B2A
:1006F0006E09062D13CD0E8C0E8A03A90B4605A696
:100700000385F7451485E0A200A0170015A041FF5E
:10071000FE8FFFFFBFFF003898001098FE9399FEF0
:10072000BB991893991B939943BB994F93997F93C6
:10073000991FBB99DF9301C79301F1BB1FFC931F66
:100740000E93110EBB117893116383110F83113037
:10075000831106FF01FFFF3B77151577111577070A
:1007600011770014760E16760A16150CB50054048F
:100770005302B117D104B0138EF54E038D714D05A0
:10078000AA0B4905486284F684F584F284F1A21527
:10079000200CA080FFDC1D40DCFD7F0C1C40001CF9
:1007A00040000C401F18F83F183EFB007F0B006311
:1007B000013860037C6003FE6001FE70C10070C3FD
:1007C0000078FF007F7F007F0F0070030040033C34
:1007D00040017E0001FF0081FF01FFFFFF77171737
:1007E000B61596D11603730D0D4E124C07AB04A926
:1007F00013A9018862A61646104607650005C417AE
:100800002415A40C8441834D401380418080FF0057
:1008100000000000E00000E01C0000380000F13F94
:1008200000E07F0007E0E707E0E7E0E7E7F8E7E759
:1008300018E8E700E0C720F0CFF0FFCF18FCCF03A7
:10084000C0CF0B84CFFF8FCF18980100C00120D0FC
:1008500001F7FFFFF7FFFF770B1777041776140FE9
:10086000351295E41501540CB408540591E4500A6E
:10087000B00750038E94AD088DE44CEC4C85AA0172
:10088000879487B3A017C016A015FFFFFFFFFF00D6
:10089000FF3F00FC0F00F007C0E0C7FFE0C71FC02C
:1008A0003F00C03F00870118870118BF01FFBF0349
:1008B000038001008019008019F08F03F6CFC33642
:1008C000C0C730E0073CE0010CF03900FCFF00FF3E
:1008D000FFFFFF1501520B520AB10B700E09902653
:1008E0006F110C6F0E088F298EECCD0E8CECAB16B1
:1008F000AA164A0F4A0E4A0D864D26E384E6A3093E
:10090000FF00FC1F00FEFF7067F0386600BC660049
:100910003E6E037E6F03386603B16603336603776A
:100920006703376603B16603306603380003382077
:1009300003FEFF03FEFF1F00C03F00000000008019
:10094000004080C7FFFFC7FFFF771214770C1477B2
:10095000081777071777061795AF95E61501B411B5
:10096000940EB40993EE92E64F0F4F0E8FC62F01EF
:10097000AB164B07A7164707A316A30B4307C016D2
:10098000FF00000000000043FE0718FEC718FEC766
:10099000180006F80F06F80F7E180C7E000C1E00DB
:1009A0000CC6000CF6180CF6F83FC6F83F1F180CE2
:1009B0007E184C66180C06180CC7000CF6004C305C
:1009C000000C003A0C073A0E8F7717117713117746
:1009D00009077701147601141504B417521451163F
:1009E000B017D013AF054E164D14AC132C0C8C85DC
:1009F000AB094A144916A8178673853685458320A6
:100A0000FF00000047443407003007003007003083
:100A1000070030070830FFFF3FFCFF3F80013080B8
:100A200001308319309119328019308419388019B6
:100A30003081193280193084593080193090193141
:100A4000001800C0193CC0193C5304510EAF134D9F
:100A5000028CEA8CE94B11AB0DAA168A738A2BCA59
:100A6000062A00A91386EC660B0486E3A511A545AA
:100A7000400A0001FF00000000000000000000002C
:100A80000007002007004C00000C00000C60C30CA5
:100A900060C30C60C30C60C34C01C00C01C00C39B6
:100AA000C00C39C00C38C00C00C02C00C00C00C0F9
:100AB0000C00C00000C00C00DF6C00DE6C77161468
:100AC00077151476161476151476080A150AB410DC
:100AD000B3089215B202AC118C856C0005CA2BA725
:100AE0001547084705861685152301A20AFF300021
:100AF000383F80393080390080B90780990F80599C
:100B00002F825900901900901900C01900C01900D7
:100B1000E11908E019008039030078030058FFFF4D
:100B200019FFFF190000B80000B800000000000025
:100B30000300FC0700FC76171776161776151715B5
:100B400013B4019016B0158D164A0DAA0389578962
:100B500075A908A717871645094505441644038358
:100B6000242301A111400FC001FF81FF7F80FF7F7F
:100B700098C160FEC160FEC16286C36684C162B175
:100B8000E17231E062FBFF66FB3F6210A27310224C
:100B9000631E67673E226302B273FA2363F86767D6
:100BA000F823633DB273303203007607FF0703FF7B
:100BB000FFAB7717177603167602167601167600C6
:100BC00016B515150752029101AE134D052C0AAC4E
:100BD000086B1007AB038B204A10480348018702BB
:100BE000A613A50B856344098374C20D8100FF0021
:100BF0000070F80070FCFC7F06FC0F067E00E67FAC
:100C0000E0E671F87670FE76F0077EFF031EFF01C6
:100C1000DE8101C681E1F619ECF619ECF681EDF6FC
:100C200081EDF681ED86C1EDBEC1EDBE83E10080B0
:100C3000E1FF8FEDFF8FFD77140A760013551274D4
:100C40000907D10EAF0C4E0F4C124C0B4C05AC03E8
:100C50002B164A07AA05080AA803870F86116517ED
:100C60000585138415A411A40F82298108FFE001D2
:100C700030E70130C70130DFFF379FFF37BF073054
:100C80003F0030FF503CFFFF3FFFFF2300E020000C
:100C9000E034409E290F9E210F1E230F1E270F1E9A
:100CA00026EF0728EF07200F66300FE0310FF80717
:100CB000FFFFFFFFFFFF7604059412540C931071A1
:100CC00008055006AE17AE062C018B13CB0B4B86D6
:100CD000AA14681305A70DA616864C46064405639C
:100CE000090482E94203A10E0001FF020000030093
:100CF000000000FC0000FED402FE003800013800B5
:100D0000003000241D00001C0001D82000D8000481
:100D1000D80800D80001C002F1C100FFFF08FFFFA2
:100D200000C00720000000000080000080FF27C9ED
:100D3000FF07C0760804760604B513B510B50D9507
:100D400086150293868E84C869A70B4708470585D8
:100D50004A6417054211A20E2115A000FF000300EE
:100D600001830180838100830911830300833F0293
:100D7000337C003300383EFE7800FF008003001F04
:100D800000803F00803100C06000C06800E0E000EB
:100D90007EC21B3E821B308801000800002000300C
:100DA00020C07980C477120577E00556129600B509
:100DB000059410B4099311CD0A0A0A270AA213A1B7
:100DC00017A1E74010400FA000FFC40040C0008002
:100DD000C00000C85615090600FF0780FE079138BD
:100DE000000000600000E00000C0004182010093AC
:100DF000030403030003001047000000C00400D1F7
:100E00000000000100000100000300000BA2E40349
:100E100000E01516B509B503701704B014CE0A6BBF
:100E2000000DA600830583248322A212A20E2017A0
:100E30008001FF0000700000F00000F00000F000F2
:100E4000F3FF00F3FF00F30702F30388F33180F3AD
:100E50003880738C8033868033C3FC83C1FCC3E04D
:100E60000060E00030F00018F0FE0FF8FE07F80018
:100E700000FC0000FC00E0FF01F0FF770C0A7700A7
:100E80000A150EB506531251134F148F0C4D15ADA4
:100E90000E8D0C6D0607AC0BAC0A4B168B10491768
:100EA0008912670106A615C60384EB84EA2311A004
:100EB00017FFE00300E0030000000007D8F607D8A2
:100EC000F60018F0E01FF0F8FFFFF8FFFFC0000089
:100ED000C0C000C7C021C78703C0070780000EF845
:100EE000000CF800C00000C000006007806007042C
:100EF00000070080FF01C0FF03C176040E73010EDE
:100F0000B217AE062B098A85A91667100446B246A9
:100F100010460E660A05660804660604A510854696
:100F2000A30AA3E7C216822B82660201800AFF0091
:100F30003C30001CE0000CC00F0CC00F0C000CACCF
:100F4000E10CCC010E8C010E9C050C8C010C8C016B
:100F50000C8C110C80010CFC010CFC41FCFF01FC11
:100F6000FF110080010780010780050780C107008D
:100F7000D00700C0D7A9CA771315770405B317B2F5
:100F80000CB20872000B4E094E084E074E064E0575
:100F90004E046D0E0C6D0D0C6D0C0BAC05890C87A1
:100FA0000E860D2601C417820C0201810DA017A028
:100FB00016800EFF0000000000000000000783C143
:100FC0000700000300000100000100000100000113
:100FD00000000138000338801B7CB03DFE783DFEE8
:100FE000781938303DEE783DFE781938303DEE788E
:100FF0003DFE781938303D7C787D7C7C7712147703
:10100000061496129606B513B505B20EB20AAF0EC7
:10101000AF0A6D0C0AC92C2217421042080201FFC8
:10102000807F00000000070000070000FFFF1FFF97
:10103000FF1F000000000000000000F8E1FFF8FFC3
:10104000FF001F00000E00000000C01818FFFF1F67
:10105000FFFF1F00000000000000000080C100C072
:10106000C101FF80FFFF08FF770B06761608B62B3D
:1010700015E3350191896F01064E0EAE0D4E0A4EF5
:1010800008AB17691605492C4909880D8884860E16
:10109000A60D640A0383E7A20EA20781E7C101FF40
:1010A000016700FF610001E01F30E63F3006607815
:1010B0000600FFE7FFFFE7FF03E600016600E067C9
:1010C000F8F067FE1C00FF0C0000000000FFE73F87
:1010D000FFE73F0060000060000060FE0060FE006F
:1010E00060C0FFE7FFFFFFFF770C17770B17760F46
:1010F0000D962BD515551215E2731605B3466F00E4
:10110000054E124E068B104B038A00A816A80766E0
:10111000080445122501A411420481AFA012A002C7
:10112000FF0018C00018C00E1FF09F07E1FF0780E6
:10113000FF3F04FF3F000000100000000000C0005F
:1011400000C00000FEFF87FFFF8701380600100681
:101150000000067800FE7F82F80700000000000013
:10116000000000FFCFCCFFCFCC77170A77040776BB
:10117000040695E0B304710B089107AF07AF010BAC
:1011800001A90DC40C8311A20E2102A00F804DFFF6
:10119000C0C1FFE0CDFFB0CD0087CD0007CD0080FE
:1011A000CD03FCDD03FCCD0F0CCC8F0CCC800CCC24
:1011B000C08CCFC08CCFF08CEFF18CCF018CCF03E3
:1011C0008CCF039CCF0F8CCF8F8C0F80800FC08073
:1011D0000FC0FFFFF3FFFFF37606067104085012FD
:1011E0008C0D4B15AB0D6B090A8B86A912A90488CF
:1011F000844612850C2410A40CA4078346A303C2C2
:10120000160201FF60FEE760FEE76100006000007B
:10121000600018E0CF1FE0CF8F7486816000C0604F
:1012200000C0E0FFCFE0FFCF66000060000060007C
:10123000006000006000007460F86070F860780082
:10124000007C00007E00FF7FF8FFFFF8770F067636
:1012500000055504B31671040610169002AE11AEC7
:10126000026C01088B024911892CA801C711A7083B
:1012700067040786022411440884E0A100FF0000EF
:1012800000000000000F00FFFF07FFFF3FFFFF3FD0
:10129000003E00001C000000800000C000FFFFFCBA
:1012A000FFFFFCFF010C00000C00000C00000C0014
:1012B000000C00F00C00F00C00F00000F00000F05A
:1012C0003F7FFE7FFFFF771010770F0F77060A76BC
:1012D000010AB10B3016AD06AC13AB00C90F490DB6
:1012E0004909A51782100201410AA106FF0000006A
:1012F000000000000006AFFE0F0FFE1D0F00C00033
:1013000000C00000F00000F8F855FFF000060300F0
:10131000000300000700000FFC011FFE0F18060E5F
:1013200000001C0000000000C00060C08061F0FFF1
:10133000FFFFFFFFFF1501B308B014AC08AC05A612
:101340000D630703630503C2022200A006FF100815
:101350002060606060400000000000181C0E070361
:1013600030707070706000000000001C1E0F0703DA
:1013700040404040404000000000001008040201CE
:10138000000000000000000000000000000000005D
:101390000000000000000001000203030200000042
:1013A0000000000000000001000203030200000032
:1013B0000608001C1E1E0E00000C1E1E0C00001C49
:1013C0001E1F0F06040C1810000000000000000093
:1013D0000508060E0E0C0002060E0C00060F0F0785
:1013E0000303060C000000000000000000000000E5
:1013F00000000000000000000000000000000000ED
:1014000000000000010203040404012040FFFFFE6D
:10141000F8E0C08FFF7F7F3F3F1F1F0F0F0F0F0FA1
:101420000F1F1F3F7FFFFFFFFFFFFFFFFF070703A8
:1014300003010100000000000000000000000000A7
:10144000000000000000C3FFFFFFFFFFFF000000DF
:10145000000000000000000000000000000080C04C
:10146000E0F0F8FCFEFFFFFFFFFFFFFFFF008080C2
:1014700000000000000000000000000C1E3F3F7F45
:101480007F7F7F3FBF9FCF67331B99FDFC00030722
:10149000070000101818180800000000F0FCFEFEFD
:1014A000FEFFF7F3FBFFFCFCFEFFFFFFFF0080C029
:1014B000C0E0E0F0F0F0B8B838787878F8F3E7CF2B
:1014C000DF9FBF3F7F7F63C383A3A78FFF0F1F3FB4
:1014D0007FFFFFFFFFFFFFFFFFFFEF8E1EDC9DB9C9
:1014E000B3A78FFFFEF8C0E0F0F8FCFE3E808080DE
:1014F000C0C0E1E1F3E7EFECECE1F3F7F6F0FFFF5A
:10150000FFFFFFFFFFFF7F3F1F0F030000FCF0E026
:10151000C08001071F3F7FFFFFFFFFFFFFFFFFFFAF
:10152000FFFCF0E0C08081071F7FFFFFFFFFFFFF90
:10153000FFFFFFFEFCFCF8F8F9F3F7F7FFDFDF9F92
:10154000BFBFFFFFFFFFFFFFFFFFFFFFFFFFFF7FAB
:101550007F7F7F7F7F7F7FFFFFFFFFFFFFFFFFFF1B
:10156000FFFFFFFFFFFF7F3FBFBF1F5F4FFCC000BC
:101570007CFEC7D3732386FCF9F3E78F1F7FFFFF41
:1015800003F9FDDD9DBCB83333000EE7F3FF7F3F69
:101590001E1E8E8ECEFFFFFFFFFFFFFF3E80F3F18A
:1015A000E4ECC99B33E3033F7F7E3C3C1CFDF9FB2D
:1015B0007F7F7F3FBF9FDF4F6F2733181E4FCFC7FF
:1015C0008783030918183A3A7A7A7AFBF90E0606E5
:1015D00006030301010000000000000000000001FC
:1015E000010303030206060404048484840000004B
:1015F000C0701C06033119010302020206740404C0
:101600000CF8000000C0F0FCF6E7E7E7EF00003F51
:10161000FFFFFF3F9FCF603080C60F1F3FFFFFFFE0
:10162000FFFF7FFF7FDF77DD77DD77DD77FFF8E096
:10163000830F3F7FF9CCE63399CC6600801F373D9E
:10164000371D1F0D0703010101010307076F27B7AE
:1016500093DBC006EC4903078F9C1E3B396C66F296
:10166000D8C8E0B090C040008080008080F336741D
:10167000E18F3FFCF8FAFBF9FCFFFFFFFEFEFCFCEC
:10168000FCF8797979393919190901018180FE004D
:10169000E7F3F8FFFFFFFFFFFBFBF9F9F9F9F8F8B3
:1016A000F8FCFCFCFCFCFC7E7E7E7F3F3FFDFCF6F4
:1016B000F7E7E7E7C7C7C7C74743030303030301C8
:1016C00001010101000000000000000000C0C0C1D5
:1016D000E1E1E1F1F1F0F8F8F8F870302060C08055
:1016E00000000000000000000000000000FFFFFFFD
:1016F000F7F3F3F1F9FDFFFF0F0100000000000315
:1017000006000000000000000000000000DD7FC7B0
:1017100003010000000000000000000080FFFFFF48
:10172000FF1F0080FF0080C0E0F0FCFFFF050707FF
:1017300003000000000000000080E0F87F3F0F037E
:10174000C0F0FCFFFFFFFFFF7F1F0F0701C040003D
:1017500040607070381804060383C1E0F0F87E7FA3
:101760003F9F8FCFC7E3E1707038F8FCFC80C0C0AA
:10177000E0E0F0F0F818CC66331B190D0C060607F4
:1017800007030301010000000000031FFF3F1F1FAC
:101790001F0F0F0703000FF80000000000000000FB
:1017A0000000000000000000000000000000000039
:1017B00000000000000000010F0800000000000011
:1017C0000000000000000000000000000000000019
:1017D0000000000000000000000000000000000009
:1017E00000000000000000000000000000000000F9
:1017F00000000000000000000000000000000000E9
:10180000000000000000000000000000003C380064
:101810000000000080F8FE0FE3FB1B0B0B8BFBF3BB
:10182000F7F6F6F60606ECECECECECECECECECEC9B
:10183000ECECECECEEE6F6F6F6F7F3FBFBCBCBFBD1
:10184000E30FFEF8801E332121339E00000080F854
:10185000FF0FE0F8F9F9F9F9F9F9F9F1F3F3F3F316
:10186000F0F0FFFFFFFFFFFFFFFFFFFFFFFFFFFFA6
:10187000FFFFFFFFFFFFFFFFFFFFFF7F7FFEE00F88
:10188000FFF880060600000000000F3FF0C60704C6
:1018900004070707070707070707070707FFFFFFF3
:1018A000FFFFFFFFFFFFFFFFFFFFFFFFFF07070730
:1018B0000707078787070726860707C6F03F1F0029
:1018C000808000000000000000030784C4E4E4E41A
:1018D000E4E4E4E4E4C49C000FE7E7E7E7E7E7E7D4
:1018E000E7E7E7C7870F1F0FC7E7E0ECE4E4E4E5AD
:1018F000E5E4C4040404070300C040C3031100006E
:1019000000000000000000FFFFFFFFFF393939FF32
:10191000FFFF0FE0E0EFEF0FFFFF183879FFFFF751
:1019200003E0E0EFEF0FFFF9F0F0FCFDFDFD0DEC43
:10193000E0E0E00000012101000000000080C06044
:101940002060C080000000000C0C007EFE803C3E49
:101950001C1C1C1C1C0C0C0E0C0C0C0C0E1E1C1C41
:101960001C1C3C3E80FE7E00000000C0E0E0C00089
:10197000000000030300000E1B3166C680D06031FA
:101980001B0E00003828380001471E382020202078
:10199000301010D0D0101090103020202020381E91
:1019A0000701000006060000010100000000000021
:1019B0000000001B2801FCFE02FA2222FA02FAAA09
:1019C000AA8A02FA82BEBE02FA2AAABA82FEFC01E2
:1019D00000FFFF06F656567606F6067E7E06F6965B
:1019E00096F6067646C77707FFFF0000FFFF0C2D2F
:1019F000EC2F0FEC4D8D0DED0CEDACAC2D0CEF2C58
:101A00002DEC0FFFFF0000FFFF18DA5B5A181BD800
:101A10005859DB18DB981EDE18DB5A5A5B18FFFF9B
:101A200000C0CF9F90171415151017145457505716
:101A3000D0D1D7D0D7D15D5C5F1F0F000F10FDFD57
:101A40003131FDFD01C9DDDDEDED4D01FE04040682
:101A50000604040604040404040406030210FE0140
:101A600003060910FE01C9DDDDEDED4D010306049D
:101A70000404040406063010864D49CBC30000CF91
:101A8000494D4D00CF4545CF00C7C84847004FCB13
:101A90004B09C04F42C40F40CF49094F808A4F08BD
:101AA000C0CACF4800CD0D0B61D392B230000043C5
:101AB0008282F200F39191F30092B2B3F300F053FB
:101AC00050B00391F19100020302000300000300F3
:101AD0000302020200030202071000103890000403
:101AE000060000010301000010107C1010001C0013
:101AF0000000000000000010381000040E0000007C
:101B00000100000000000080040407000001030140
:101B10000000000090C0840E0700010307030100CD
:101B20002A18FE03F9FD0DFDF90DFDF9C3D9DDDD20
:101B3000D1F1FD7D01C9DDDDEDEDED410D0DFDFDC9
:101B40000D01EDED0179FDCDCD4903FEFF007E7E57
:101B50007A6E6C38007C7E1A1A7E7C007E7E606015
:101B60000E7E606C6E0E7E663C427E7E663C007E23
:101B70007E067E7C01FF01030202020202020302D2
:101B80000202020202030202020203020202020332
:101B90000202030202020202030202020202030123
:101BA000232001FCFE02BAAAAAEA02FA2AAA8A02A1
:101BB0008ADA72DA8A22FEFEFEFEFEFC0180C00F87
:101BC0001B1E1B0E0FFCF9FBFAFA7A3A9A02FEFE74
:101BD000FFFFFE06F61616F606F757571707F754D7
:101BE0005514C4FDFDFCF800017CFEEECEDEDC9950
:101BF00000FFFFFFFFFFFCFD0DED2D2CED0CEF4F67
:101C00009C0DEC0FFFFFFFFFFFFF00F2F6E4CD1984
:101C100071011F30270F8F8FCF6F0FE8EBEAEAEBD0
:101C2000E8EBE8ECE9EBE8EFEFEFEFEFE7F021109E
:101C300000F8F0FCF8FCE8FCC8FCF0FC00FB020338
:101C4000020302030203020302030203020302036C
:101C5000020302030203020302030203020302035C
:101C60000203020302030203020302030203FCFF56
:101C700000FE000100030107037F01070007020FB8
:101C8000020E020E020E020E020E020E020E020ED4
:101C9000020E020E020E020E020E020E020E020EC4
:101CA000020E020E020E020E020E020E020E030FB2
:101CB000010F00071B1801FCFE02FA82BEBE02FAE9
:101CC0008A8AFA02FA4A4AFA02FA8A8AF206FEFC7A
:101CD0000100FFFF06F6264E86F606F65656160655
:101CE000F686CE86F606FEFEFEFFFF00F0630734A2
:101CF0008584969485C445653585F4F5F5F4F5F548
:101D0000F6F7F7F7F7F3F007081E3F31313F1E8073
:101D100000323F3F3080C0103B3B37373280313597
:101D2000353F3F1E80CE8F0C3C3F3F803237373BE4
:101D30003B90C01E3F37353D19808203333B3F8FB8
:101D4000801E3F35353F1E80123735353F1E8011CE
:101D500018FEFF01FDFDC1C3C11D7DE1E17D3D8197
:101D6000FFFEFF80000000000000000000000000F7
:101D70000000FF010302020202020202020202024A
:101D80000202030107100101010101010104040421
:101D9000040404040210FE03030603FE06033410C9
:101DA000FE01FDFD35353DD9E53D75FDD921FDF53A
:101DB000D5DD5981DDDDEDED419DDDEDED41030129
:101DC000FDFD3179EDC539FDF5D5DD5985DDD1D183
:101DD000FD7D01FE03060404040606040404060453
:101DE00004060404040406040404040406040404AD
:101DF000040406040404060404040604040404069B
:101E000004040404040406030C10FE07F309E5D5DA
:101E1000F5E509F307FE7FF0E3C4C8C9C9C8C4E308
:101E2000F07FFE0FF7FBFDFDFDF58BF70FFE7FFE4C
:101E3000FCF9F38787E3F1F8FC7F2418FE03F9FD32
:101E40000DFDF90379FDFDD5D5DDD9C3C1ED7D3992
:101E50007DEDC10D0DFDFD0DEDE1FBF3E74E18F03D
:101E6000FF007E7E606C0E7E6A6A6E2C001E3E70E5
:101E7000703E1E003C7E6A6A6E2C007E7E606B693E
:101E80000CFE03010103020202020202020202022C
:101E9000030202020202030202020202020302021F
:101EA000020202020301000083918B9883ACC8BC3C
:101EB000D5FF1010FF00FEFAFE0E060606060EFE07
:101EC000FAFE00FFFF00FFBFFFCFC6C0C0C6CFFFB6
:101ED000BFFF00FFFF00FE020202020202020262D6
:101EE000626200FFFF00DFC0C0D8D8D8DBDBDBDBDD
:101EF000DBDB00FF1010037D3E1E3E7E3E1E3E7E5D
:101F00003E1E3E7E3D03803A6E3B6E3A6E3B6E3A1D
:101F10006E3B6E3A2E80037D3E1E3E7E3E1E3E7E12
:101F20003E1E3E7E3E1E803A6E3B6E7A6E3B1E0E1D
:101F3000466370386C3E008FC6E3F1B8ECBEEFBB71
:101F4000EEBBEEFB6E00803B6E3B6E3B6E3B1E0FAE
:101F5000466371382C80008FC6E3F1B8ECBEEFBB4E
:101F6000EEBBEEFB6E3B803B6E3B6E3B6E3B1E0F53
:101F7000466371386C3E3E7E3E1E3E7E3E1E3E7E79
:101F80003E1E3E7E3D036E3A6E3B6E7A6E3B1E0EEB
:101F9000466370382C803E7E3E1E3E7E3E1E3E7E58
:101FA0003E1E3E7E3E1E6E3A6E3B6E7A6E3B1E0EAF
:101FB000466370386C3E1E8FC6E3F1B8ECBEEFBBD3
:101FC000EEBBEEFB6E006F3B6E3B6E3B6E3B1E0F3F
:101FD000466371382C801E8FC6E3F1B8ECBEEFBBB0
:101FE000EEBBEEFB6E3B6F3B6E3B6E3B6E3B1E0FE4
:101FF000466371386C3E037D3E1E3E7E3E1E3E7E35
:102000003E1E3E7E3D0300BAEEBBEEFA6E3B1E8ED8
:10201000C6E3F0B8EC00037D3E1E3E7E3E1E3E7ED3
:102020003E1E3E7E3E1E00BAEEBBEEFA6E3B1E8E9C
:10203000C6E3F0B8ECBE008FC6E3F1B8ECBEEFBB70
:10204000EEBBEEFB6E0000BBEEBBEEFB6E3B1E8FED
:10205000C6E3F1B8EC00008FC6E3F1B8ECBEEFBB0D
:10206000EEBBEEFB6E3B00BBEEBBEEFB6E3B1E8F92
:10207000C6E3F1B8ECBE3E7E3E1E3E7E3E1E3E7E78
:102080003E1E3E7E3D03EEBAEEBBEEFA6E3B1E8E6A
:10209000C6E3F0B8EC003E7E3E1E3E7E3E1E3E7E17
:1020A0003E1E3E7E3E1EEEBAEEBBEEFA6E3B1E8E2E
:1020B000C6E3F0B8ECBE1E8FC6E3F1B8ECBAEFBBD6
:1020C000EEBBEEFB6E00EFBBEEBBEEFB6E3B1E8F7E
:1020D000C6E3F1B8EC001E8FC6E3F1B8ECBEEFBB6F
:1020E000EEBBEEFB6E3BEFBBEEBBEEFB6E3B1E8F23
:1020F000C6E3F1B8ECBEFFFFFFFFFFDFBF7FBFDF2E
:10210000FFFFFFFFFFFFFFFFFFFFFFFDFEFFFEFDE5
:10211000FFFFFFFFFFFF08088FE1CED29ED21E21F6
:10212000211ED29ED2CEE18F84784B794B7387F1FA
:10213000F187734B794B7884101003397D64E2E2A8
:10214000E2E28E8E8E8E4C7D3903C09F3F7E006C06
:102150006C6C6C006C6C000099C003397D7CF6924D
:102160009282929292DE7C7D3903C09F3F7E006C0A
:102170006C6C6C006C6C000099C003397D4C8E8EC9
:102180008E8EE2E2E2E2647D3903C09F3F7E006C06
:102190006C6C6C006C6C000099C003E9EC0EEEEE08
:1021A0000E06F0FCFE06060CF107C08D0D404D0D2D
:1021B00000400F3060607F3F8FE003E9EC0EEEEEF1
:1021C0000E06F01C1E7E0E1CF107C08D0D404D0D3D
:1021D00000400F38707F78388FE003E9EC0EEEEEA8
:1021E0000E06F00C0606FEFCF107C08D0D404D0DED
:1021F00000400F3F7F6060308FE007F1FCFE060675
:102200000CF00200B0B202B0B103E08F3060607F2A
:102210003F0F60707777703797C007F11C1EFE0E76
:102220001CF00200B0B202B0B103E08F38707E78CB
:10223000380F60707777703797C007F10C0606FE8D
:10224000FCF00200B0B202B0B103E08F3F7F6060EB
:10225000300F60707777703797C008080096CDCD43
:10226000EBEBEBF73F4F713E410F3F7FF7EBEBEBB3
:10227000CDCD9600FCF28E7C82F0FCFE0A1003F9B4
:102280000472EAFA7204F903FCF9F2F4F4F4F4F2D9
:10229000F9FCFF0371F872060CF903FFFFFCF8F07C
:1022A000F4F6F3F9FCFFFFFFFF00060600FFFFFF57
:1022B000FFFFFFF0F4F4F0FFFFFFFF03F90C0672DD
:1022C000F87103FFFFFCF9F3F6F4F0F8FCFFFF816F
:1022D0003C66C2C2663C81FFFFFFFF007F7F286B28
:1022E00003FF010803101040C03EFE81FF9CFFBEAB
:1022F000FF3EFF76FFF6FF7CFFF9FF72FE74FC7471
:10230000FC08F8F0F0808080FF3FFF67FF6BFF73F1
:10231000FF7FFF78FF73FF76FF76FF70FF33FF814B
:10232000FF4C7F5E7F407F0000FEFE01FF3CFF7E92
:10233000FF7EFFF6FFF6FF7CFFF9FF72FE74FC7470
:10234000FC08F870F040C07F7F80FF3EFF67FF67AA
:10235000FF7EFF78FF73FF76FF76FF30FF80FF4C34
:102360007F9EFFBFFF80FF8080F0F008F874FC7450
:10237000FC72FEF9FF7CFFF6FF76FF3EFFBEFF9C7E
:10238000FF81FF3EFE40C0407F5E7F4C7F81FF3378
:10239000FF70FF76FF76FF73FF78FF7FFF73FF6BA1
:1023A000FF67FF3FFF80FF40C070F008F874FC75C6
:1023B000FD73FFF9FF7CFFF6FFF6FF7EFF7EFF3C1B
:1023C000FF01FFFEFE000080FFBFFF9EFF4C7F80ED
:1023D000FF30FF76FF76FF73FF78FF7EFF67FF67B2
:1023E000FF3EFF80FF7F7F0C103EE3810101190358
:1023F000868C8888700000FD93988EA0F31E0000E4
:10240000007CC602020232060C181010E0FE939FF8
:1024100080D054F6B2B39FF1003EE381010119036D
:10242000868C8888700000FD93988EA0F31E0000B3
:10243000007CC602020232060C181010E06E93B344
:102440007A68CC90B39F7507007CC682020A1A0294
:102450000684C44C78FCB29399CCE080CF7900001C
:10246000003EE3810121311B8AEEBC887800001F09
:10247000202161474D643C00007088888C860319D8
:10248000010181E33E0000001EF3A08E9893FD0041
:1024900000E01010180C0632020202C67C00F19F08
:1024A000B3B2F654D0809F93FE7088888C8603194F
:1024B000010181E33E0000001EF3A08E9893FD0011
:1024C00000E01010180C0632020202C67C000775EC
:1024D0009FB390CC687AB3936E784CC48406021A8A
:1024E0000A0282C67C00000079CF80E0CC9993B2CA
:1024F000FC7888BCEE8A1B31210181E33E00003C60
:10250000644D476121201F00003CFFFFFFFFFFFEDD
:10251000FCFCFCF8F06CFEFFFFFFFFFFFFFF7F05F8
:1025200000F0F8FCFCFCFEFFFFFFFFFF3C00057F16
:10253000FFFFFFFFFFFFFFFE6C0A1000F8F8FCFC36
:10254000FEFEFFFEFFFEFFFAFFC4FEF8FC00F800EF
:1025500000000101030307077F070F0307010300C2
:102560000100000508819D8181819B8181819F857A
:10257000859191919D95818181E1E7818181919101
:102580008585858191858585F9F98181818195810F
:1025900081819195818181E34181C5E3EBBFFDBFDD
:1025A000EBC38D8581C3F1918585F10808FFFFFF9D
:1025B000FFFFFFFFFF2218FE0379FDFD85B5F571D2
:1025C00003F9FD3535FDF903F9FD0DFDF90DFDF9B3
:1025D0000379FDD5D5DD5903FEFF017E7E1A1A1E53
:1025E0000C707E1A1A7E7C027E60607E3E406E6EAB
:1025F0007676200C7E6A6A6E2C01FF0103020202CD
:1026000003030302020202020203020202020302A5
:10261000020202020203020202020203012218FE67
:102620000379FDFD85B5F57103F9FD3535FDF90338
:10263000F9FD0DFDF90DFDF90379FDD5D5DD590342
:10264000FEFF013C7E7E7E7E663C001E3E7060701A
:102650003E1E003C7E7E6A6A6E2C007E7E1A3E7EA6
:102660006C01FF01030202020202020203020202E3
:102670000202020302020202020203020202020337
:102680000202020301D5F08D14A1C881CFD9F1AFA8
:1026900020005810F0F89C8E8783878E9CF8F000FD
:1026A00000FEFF0303030303070EFCF80000FEFF18
:1026B0000303030303070EFCF80000FFFF00000004
:1026C00000000000FFFF0000FEFF8383838383C7B9
:1026D000EE7C380000F8FC0E07030303070EFCF83D
:1026E00000003F7FE0C08080C0E07F3FFFFF01012E
:1026F0000101010101FFFF0000FFFF0C0C0C0C1C8D
:102700003E77E3C100007FFFC0C0C0C0C0E0703FA3
:102710001F00001F3F70E0C0C0C0E0703F1F0000FE
:102720007FFFC1C1C1C1C1E3773E1C00001F3F70E4
:10273000E0C0C0C0E0703F1F000000000001FFFFCC
:1027400001000000F71AA81AE319511A0D28C82C25
:102750004429791C4319EB28461B5519080B000224
:10276000020200000904000001020200000524002A
:1027700010010524010101042402060524060001BC
:102780000705810310004009040100020A0000004F
:102790000705020240000007058302400000040311
:1027A000090412010002EF020140412336800001BA
:1027B0000102030141726475696E6F204C4C430045
:1027C00041726475696E6F204C656F6E6172646FE3
:1027D0000000973011241FBECFEFDAE0DEBFCDBF7F
:1027E00011E0A0E0B1E0E2E8FAE602C005900D9247
:1027F000AA37B107D9F727E0AAE7B1E001C01D92D7
:10280000AB38B207E1F713E1CAEED3E104C0219778
:10281000FE010E943935C93ED107C9F70E9498319F
:102820000C943F350C9400008091C30108956F9281
:102830007F928F929F92AF92BF92CF92DF92EF9250
:10284000FF920F931F93CF93DF93DC017A01411521
:10285000510509F49CC0FA01149131965491F2E0AB
:10286000EF0EF11CC12FD0E0222309F1CC24C39438
:10287000D12C852F877011F4D12CC12CE52FE69532
:10288000E695E695EC0DFD2DF11DEC9FC001ED9F49
:10289000900DFC9F900D1124033011F4880F991FA7
:1028A000289FF001299FF00D1124EE0EFF1EFD015F
:1028B000EC0FFD1F1E161F060CF069C0A038B105F5
:1028C0000CF065C0CB01850F911D181619060CF090
:1028D0005EC0603471050CF05AC0E114F10409F4D3
:1028E00056C0362F3770CB0177FD079623E09595BC
:1028F00087952A95E1F7282F77FF04C0332311F03D
:102900002FEF280F662777276A1B7B0BB7FD02C0C6
:1029100070E060E090E89A1BE038F1050CF4912F2C
:10292000961BE22F022E000CFF0BDE2ED0942F3FC1
:102930000CF0D12C41E0852F877009F440E0B52ED2
:10294000B694B694B6944B0DE40FF11D399714F07C
:1029500048E0421BB42EBD182D0D40E82403F001C1
:102960001124AE0FBF1FA60FB71F1D9D600D711D57
:102970001124A701460F571FC32E032E000CDD089C
:10298000033009F4C7C090F4023009F474C0DF9139
:10299000CF911F910F91FF90EF90DF90CF90BF905C
:1029A000AF909F908F907F906F9008950A3FA1F114
:1029B000B20E0B3F61F72B1551F3BD0167507E4FEF
:1029C00010E000E0091708F09FC0FA01E00FF11FC6
:1029D000E491F0E04F010C2C02C0880C991C0A9481
:1029E000E2F727FD06C0FB018081F82CF0948F21CF
:1029F0008083332361F0273054F47B01F0E8EF0E3D
:102A0000F11CA92CA094F70180818A2180830F5F9B
:102A10001F4F6F5F7F4FD6CFB20E2B1509F4B7CF84
:102A2000BD0167507E4F10E000E0091708F066C056
:102A3000FA01E00FF11FE491F0E04F010C2C02C00D
:102A4000880C991C0A94E2F727FD04C0FB018081E1
:102A500088298083332351F0273044F47B01F0E848
:102A6000EF0EF11CF7018081892980830F5F1F4FD2
:102A70006F5F7F4FDACF6FEF70E0032E02C0660FFB
:102A8000771F0A94E2F760957095972E8B2C820E33
:102A9000281509F47CCF8D0107501E4FF12CE12C35
:102AA000E91630F5FA01EE0DFF1DE491F0E03F016B
:102AB0000C2C02C0660C771C0A94E2F727FD05C0B7
:102AC000F8018081862386298083332359F02730BB
:102AD0004CF45801F0E8AF0EB11CF501808189215A
:102AE00087298083FFEFEF1AFF0A0F5F1F4FD8CFB0
:102AF0002F5F4C0F5D1FA058BF4FCACF2F5F4C0FE9
:102B00005D1FA058BF4F89CF2F5F4C0F5D1FA0588E
:102B1000BF4F51CFE92EF12CFA01E60FF71FA75056
:102B2000BE4F60E870E06E197F09CE19DF098E0193
:102B3000000F111F41E050E07A01032E01C0EE0C9E
:102B40000A94EAF7592F4B2D892E932ECF93DF93BA
:102B5000ED01EF96EF962296A590C590992059F039
:102B6000AE9C5001CE9C600127302CF4F880D094AC
:102B7000FD20FB28F99222233AF0FC90C094FC201F
:102B8000FA28FD920C94C51511965A9529F74A9585
:102B900051F0582D23951124E00FF11DA60FB11D02
:102BA000C60FD11DD9CFDF91CF911124F0CEE9EF1F
:102BB000F1E0A0E0B8E000800EBC8111012C11977B
:102BC000A0FDFDCF0192B9F70DB40895FC018091ED
:102BD000F801882311F13FB7F89482E08093E9006F
:102BE0002091F200822F90E01816190614F481E06B
:102BF00090E0882339F0289844E64093F70140910B
:102C0000F1004083222339F02091F200211103C00A
:102C10002BE62093E8003FBF08958FEF9FEF0895C4
:102C20002FB7F89483E08093E9009091E800892F12
:102C3000807295FF04C09091F20080E4891B2FBF41
:102C400008958091EF0181110DC082E08093EB0126
:102C500084E08093EC011092EE011092ED0181E08E
:102C60008093EF018BEE91E00895CF93DF931F9255
:102C7000CDB7DEB76983DC01ED91FC910280F38171
:102C8000E02D41E050E0BE016F5F7F4F09950F904E
:102C9000DF91CF91089583E08093E9008091F20065
:102CA000882319F08AE38093E80008950E941016A3
:102CB00090E00895CF93DF931F92CDB7DEB7FC016C
:102CC0008485958597FD08C02FEF3FEF35872487D2
:102CD0000F90DF91CF910895CE0101960E94E615E5
:102CE000019719F4898190E0F3CF8FEF9FEFF0CF38
:102CF0000F931F93CF93DF931F92CDB7DEB78C0155
:102D0000FC018485958597FF0BC0CE0101960E943A
:102D1000E615019771F4898190E0F8019587848721
:102D2000F801848595850F90DF91CF911F910F91C8
:102D300008958FEF9FEFF1CFFC018485958597FD76
:102D40000BC09FB7F89482E08093E9008091F20075
:102D50009FBF90E0019608959FB7F89482E080931A
:102D6000E9008091F2009FBF90E008954091E50155
:102D70005091E6012091E3013091E401421753079D
:102D8000B4F49091E8009570E1F39091E80092FD21
:102D900019C08093F1008091E5019091E6010196C0
:102DA0008F739927892B19F48EEF8093E800809117
:102DB000E5019091E60101969093E6018093E5018B
:102DC00081E0089580E00895DF92EF92FF920F93E3
:102DD0001F93CF93DF93D82E8A01EB017B01E40E82
:102DE000F51ECE15DF0559F0D7FE12C0FE01849105
:102DF0000E94B61621968111F4CF0FEF1FEFC80184
:102E0000DF91CF911F910F91FF90EF90DF90089588
:102E10008881EECF0F931F93CF93DF931F92CDB78F
:102E2000DEB782E0898342E450E06CE577E280E837
:102E30000E94E4160E942116DC0112960D911C914D
:102E40000115110589F0D801ED91FC910280F38103
:102E5000E02DBE016F5F7F4FC801099597FD04C04B
:102E6000F80100851185ECCF89810F90DF91CF911A
:102E70001F910F910895615030F02091F100FC01F5
:102E800020830196F8CF289884E68093F70108956F
:102E90003FB7F8948091DF019091E001A091E101AA
:102EA000B091E20126B5A89B05C02F3F19F001960D
:102EB000A11DB11D3FBFBA2FA92F982F8827BC0194
:102EC000CD01620F711D811D911D42E0660F771FBC
:102ED000881F991F4A95D1F708958F929F92AF92BC
:102EE000BF92CF92DF92EF92FF926B017C010E9422
:102EF00048174B015C01C114D104E104F104B9F09D
:102F00000E944817681979098A099B09683E73402D
:102F10008105910580F321E0C21AD108E108F1088A
:102F200088EE880E83E0981EA11CB11CE4CFFF90B0
:102F3000EF90DF90CF90BF90AF909F908F900895CB
:102F40008F929F92AF92BF92CF92DF92EF92FF92B9
:102F50000F931F93CF93DF936C017B018A018091C4
:102F60000D01882309F45CC08091F801882309F4DD
:102F700057C08091EA0180FF05C08091E000826027
:102F80008093E000E801B12C8AEFA82E93E0892E0F
:102F90002AE3922E209711F4BB20D9F10E9410163B
:102FA00081110AC0AA94AA20D9F161E070E080E002
:102FB00090E00E946D17EECF8C171D0611F00CF0FB
:102FC0008C2F9FB7F8948092E9002091E80025FDAE
:102FD00002C09FBFDFCF282F30E0C21BD30BF70109
:102FE000815020F041914093F100FACFE20EF31EA0
:102FF000BB2021F09092E800B12CEBCF8091E8004B
:1030000085FDE7CF9092E800BB24B394209709F3A5
:10301000F3CF5D9884E68093E901101611063CF029
:1030200081E090E0F6019383828310E000E0C80124
:10303000DF91CF911F910F91FF90EF90DF90CF9094
:10304000BF90AF909F908F9008952091CB01E09119
:10305000C901F091CA01CF0102969093CA018093F1
:10306000C901222319F0859194910895808191815D
:103070000895CF92DF92EF92FF92CF93DF930E9459
:103080002518811520E8920791F4809171008D7FB9
:103090008093710010929100469847981092C80151
:1030A000DF91CF91FF90EF90DF90CF90089521E0D6
:1030B0002093C801813020E8920751F48091C60125
:1030C0009091C7019093CA018093C9010E9425186D
:1030D00097FD05C02091C501222309F454C0209119
:1030E000C401211150C021E02093CC01EC01DF7715
:1030F000209709F04BC081E08093CD0146983FE9CD
:10310000C32E3FE0D32EE12CF12CCAEFD0E0E091AA
:103110005706F09158060995811103C081E080930C
:10312000CD018091CC01882329F08091CD018823A5
:1031300009F43FC047980E9425180097F1F19C01BF
:10314000DE010E94F634DC01CB0129E0B595A7959C
:10315000979587952A95D1F7109290002AE02093B1
:103160009100D0929900C09298008093CE019093E4
:10317000CF01A093D001B093D10180917100826002
:10318000809371008DCF1092CC01B0CF9E0150E0A2
:1031900040E060E472E48FE090E00E94A2346901B4
:1031A0007A0181E0C81AD108E108F1081092CD0136
:1031B000AECF4699BFCF479ABECF8FEF9FEFDC01CE
:1031C000CBCF9C01E1E7F0E090819D7F908310924E
:1031D000CB01E9E4F6E0F093CA01E093C901F09372
:1031E000C701E093C601318320837383628380E04B
:1031F00090E8958384830C9439180F9303E00E9420
:1032000017140F9108950F930AEF0E9417140F914E
:1032100008950F930BEF0E9417140F9108950F93C9
:1032200002E00E9417140F910895BC0190E080E025
:103230000C946D178FB18095807F669B88601C9B76
:10324000846008951092C3013E983F9808953E9A75
:103250003F9A81E08093C30108959091D40198230F
:1032600029F49091D501982381E009F480E0089534
:10327000CF93C82F0E941A19982F9C2381E09C138A
:1032800080E0CF91089520E045EB55E261E170E0E8
:103290008FE290E00E9403198CE00E942D19882390
:1032A00019F087E08093D90108951092C20110921D
:1032B000B8011092BD011092BC011092BE01109293
:1032C000BF011092C0011092C10110927C0183E0F5
:1032D0008093750786E08093D9011092BB0110920C
:1032E0007D01089580917507882381F010926F0702
:1032F00081508093750764E670E084EA91E00E9453
:10330000E11881E080936A0710927207089588316E
:1033100040F5683140F5A091C201B0E0AA0FBB1F93
:10332000AE5EBE4FE82F082E000CFF0B23E0F59594
:10333000E7952A95E1F79F0193E06902200D311D81
:103340001124ED91FC91E20FF31FE491F0E08770FE
:103350009F0102C0359527958A95E2F7C9018170D2
:10336000089581E0089580E00895EF92FF92CF9351
:10337000C5E05CE15C9FF0011124E75AF94FDF01E1
:103380005A96328D31111CC07C0184E0EE0CFF1C7A
:103390008A95E1F794E0660F771F9A95E1F77183BC
:1033A0006083F382E28280E1489FA0011124518F63
:1033B000408F81E08C93238FCF91FF90EF90089501
:1033C000C150C0F6F9CF8CE00E942D19882349F036
:1033D00081E08093D90164E170E089EA91E00C9486
:1033E000E11808950F931F93CF93DF938091D60137
:1033F0009091D70187709927892B31F480917A01B8
:103400008F5F8F7180937A0110E000E0C0E02C2F75
:103410004BE054E170E060E0C8010E940319CF5F07
:10342000005E1F4FC43099F720E040E25BE16DE29F
:1034300070E085E590E00E9403192091D80148EDE5
:103440005AE16BE270E08FE490E00E940319C091B2
:103450007A01D0E08E0105511C4EF801249140ED17
:1034600053E169E070E089E090E00E940319F801FF
:10347000249140EB53E16DE070E08FE090E00E941A
:103480000319FE01E057FC4E24914EE453E162E241
:1034900070E08DE690E0DF91CF911F910F910C9439
:1034A0000319CF930E94F21920E044EB5CE162E142
:1034B00070E085E390E00E940F1980E10E942D19D1
:1034C000882349F081E080937B0164E170E08CE225
:1034D00091E00E94E11880E80E942D19882341F0B4
:1034E00010927B0164E170E08CE291E00E94E118AF
:1034F000C0917B0189E0C89FB00111246E5E7F4FAF
:1035000020E04EE25CE180E390E00E94FD1884E060
:103510000E942D19882359F0C65FC093D9011092DB
:103520007B0164E170E089EA91E00E94E11888E0A3
:103530000E942D19882351F081E08093D90164E124
:1035400070E089EA91E0CF910C94E118CF91089551
:103550000E94F21920E043EB59E169E070E083E357
:1035600090E00E940F1980E10E942D19882369F0D4
:1035700080910001853048F48F5F8093000164E101
:1035800070E08CE291E00E94E11880E80E942D1921
:10359000882369F080910001833048F08150809346
:1035A000000164E170E08CE291E00E94E1188CE09F
:1035B0000E942D19882351F0809100018093D90138
:1035C00064E170E089EA91E00E94E11880910001D5
:1035D0008150990B29E0289FB001299F700D11247B
:1035E00020E04EE25CE18EE290E00C94FD18CF9377
:1035F000C0917C01CF5FC0937C01C03A50F420E0C1
:103600004DE058E164E070E082E290E0CF910C94EC
:1036100003190E94F219CB3F28F48CE00E942D1967
:10362000882351F081E08093D90164E170E089EA58
:1036300091E0CF910C94E118CF9108950C948C34C3
:10364000CF92DF92EF92FF920F931F93CF93DF936E
:10365000EB017B0124E0E20EF11C8B016C01C61A28
:10366000D70AC601800F911F0E948C34F801819304
:103670008F01EE15FF05A9F7CE01DF91CF911F91C4
:103680000F91FF90EF90DF90CF90089584E490E049
:103690000E941E1B8093C20185E490E00E941E1BC5
:1036A0008093BD011092B8011092BC016EEB71E0E5
:1036B00087E490E00E94201B10927C0183E08093BD
:1036C000750786E08093D9011092BB0110927D01AD
:1036D00008958091D60180FD0FC00E94CE3324E171
:1036E00030E040E050E00E94A234CB01805C9E4F6D
:1036F0006EE170E00C94E11808954F925F926F9222
:103700007F928F929F92AF92BF92CF92DF92EF9271
:10371000FF920F931F93CF93DF93CDB7DEB72A9716
:103720000FB6F894DEBF0FBECDBF842E522EE62E0C
:10373000F12C082F10E0380182E0681A7108FE01B0
:1037400031966F01F2E02F1709F47BC06091BE0142
:103750007091BF018091C0019091C1012AE0A60142
:103760000E943134F60101900020E9F73197EC19FD
:10377000FD099E2E86E0582E5E1A570182E0A81A97
:10378000B10820E044E95DE1B501C3010E940319DD
:1037900045E0742E57E0652E20E044E85DE1B50178
:1037A000C801769C800D911D11240E9403197A9402
:1037B0009FEF7912F1CF21E044E95DE1B501C80145
:1037C00089960E940319712CA52C052C000CBB08AE
:1037D00027E0622E36E0432E7A141B040CF44AC014
:1037E000E52DF6E0EF02000D111D1124A00EB11E13
:1037F000512C692C990C770887E0982E96E0492E79
:10380000852D90E0861597050CF05CC08C0D9D1DF4
:10381000FC01208121330CF448C020532A3008F0E9
:1038200044C0F2E08F1609F442C043E655E2B70106
:10383000C801549C800D911D11240E940F195394AE
:10384000DFCF8091C20190E04AE0B60101960E946C
:103850002634F60101900020E9F73197EC19FD09B3
:103860009E2E5E1A20E04FE45DE1B70169507109B8
:10387000C301A7CF82E020E0881661F043E655E25D
:10388000B701C801749C800D911D11240E940F196D
:103890007394A2CF47E05DE1B701C801769C800D2B
:1038A000911D11240E940319F3CF20E0BACF47E005
:1038B0005DE1B701C501599C800D911D11240E9445
:1038C0000319BDCF2A960FB6F894DEBF0FBECDBF49
:1038D000DF91CF911F910F91FF90EF90DF90CF90EC
:1038E000BF90AF909F908F907F906F905F904F9020
:1038F00008952F923F924F925F926F927F928F9294
:103900009F92AF92BF92CF92DF92EF92FF920F936E
:103910001F93CF93DF93CDB7DEB728970FB6F894F8
:10392000DEBF0FBECDBF80917507882309F4B4C0F8
:1039300010925A071092590710925C0710925B0779
:1039400010926C0780E10E943819882309F4B2C3F1
:1039500080EF9FEF90935C0780935B0780917107E6
:10396000811146C080E20E943819882309F4B6C349
:1039700080E190E090935A078093590781E080930B
:103980006B0780916D0781119EC380916F07811134
:103990009AC380916E07811196C360915F07709101
:1039A0006007685F7F4F34E0759567953A95E1F75A
:1039B00080915D0790915E07019744E0959587950A
:1039C0004A95E1F70E948719811109C0809161072A
:1039D000909162078097909362078093610781E0DE
:1039E00080936C078FEF9FEF909366078093650736
:1039F0001092710788E00E943819882349F080E10D
:103A00000E943819882309F4B5C388E08093D9014E
:103A100084E00E942D19882389F180916707909195
:103A20006807892B09F0B5C380916D078111B1C377
:103A300080916E078111ADC364E670E088EC90E080
:103A40000E94E11810926C0781E080936D0710923C
:103A500070078BE08093730788E290E0909368078B
:103A60008093670780E40E943819882309F488C38B
:103A700080E290E0909366078093650784E00E945F
:103A80003819811109C010926F0780916D07882342
:103A900019F081E08093700780916A07882391F084
:103AA0008091D60180FD06C08091690791E0892749
:103AB00080936907809172078F5F8D3308F079C317
:103AC0008093720780916C07811105C08091710706
:103AD000882309F476C38091D6019091D70187702D
:103AE0009927892B79F4809174078F5F982F9370B1
:103AF0009093740780FD06C064E170E086E990E071
:103B00000E94E118809167079091680720916F07E4
:103B100021115AC3181619060CF056C321E0209340
:103B20006D0710926E072091700721110CC0209133
:103B30007307222341F005969093680780936707E7
:103B400021502093730760915F07709160078B018C
:103B5000085F1F4FF4E015950795FA95E1F740913E
:103B60005D0750915E074A5F5F4FA4E0559547950A
:103B7000AA95E1F75A834983605F7F4FB4E075955A
:103B80006795BA95E1F789810E948719D82E20910F
:103B90006507309166078091610790916207820FF7
:103BA000931F15E0959587951A95E1F701971216E1
:103BB00013060CF011C32EE030E0820F931F5C015E
:103BC00054E0B594A7945A95E1F760915F0770911E
:103BD00060076E5F7F4FE4E075956795EA95E1F7C2
:103BE0008A2D0E948719E82E81110FC060915F070E
:103BF00070916007635F7F4F44E0759567954A95C4
:103C0000E1F78A2D0E948719E82E8091670790912D
:103C10006807A0906307B0906407A81AB90A35E056
:103C2000B594A7943A95E1F797FFD9C281E190E066
:103C3000A80EB91E14E0B594A7941A95E1F78091E7
:103C40005D0790915E07029624E0959587952A95E9
:103C5000E1F76A2D0E948719F82E81110EC080911C
:103C60005D0790915E070A96B4E095958795BA95A1
:103C7000E1F76A2D0E948719F82E3091750780911F
:103C8000670790916807332309F4ACC21816190628
:103C90000CF4ACC2DD2009F4A5C2809167079091B5
:103CA0006807181619060CF4B3C2F11003C0DD2022
:103CB00009F4AEC280916E07882331F06EE170E0A6
:103CC00080E590E00E94E118109268071092670763
:103CD000109266071092650710926E0710926D079A
:103CE00010926F078091630790916407F5E09595B6
:103CF0008795FA95E1F70C96A4E095958795AA9596
:103D0000E1F7880F109263078093640780E60E94B2
:103D10003819811145C0C0905F07D090600770E1ED
:103D2000C70ED11C54E0D594C7945A95E1F7809101
:103D30005D0790915E07049664E0959587956A9576
:103D4000E1F76C2D0E948719B82E80915D07909144
:103D50005E07089674E0959587957A95E1F76C2D46
:103D60000E948719A82E80915D0790915E070B969F
:103D7000E4E095958795EA95E1F76C2D0E94871907
:103D800091E0B91609F475C2882309F472C28091D2
:103D9000610790916207449790936207809361074F
:103DA000602F89810E948719811118C080915D0759
:103DB00090915E0734E0959587953A95E1F7602FED
:103DC0000E948719882309F475C280916107909138
:103DD0006207089690936207809361078091670756
:103DE0009091680720917507222321F0F11078C285
:103DF000009751F02091630730916407281B390B1D
:103E0000309364072093630720916507309166071C
:103E10002115310561F0E11081C280916107909117
:103E20006207820F931F90936207809361078091CE
:103E3000630790916407F5E095958795FA95E1F70A
:103E40002091610730916207A5E035952795AA95E5
:103E5000E1F730935E0720935D07909360078093AE
:103E60005F078091710781110E94691B809175071E
:103E7000882309F457C08091590790915A07181662
:103E800019060CF065C2019790935A078093590761
:103E900080915B0790915C07181619060CF05DC2C3
:103EA000019790935C0780935B0760915507709131
:103EB0005607409157075091580780915B079091A2
:103EC0005C07840F951F20915F0730916007281BC6
:103ED000390B285131093595279535952795E0916E
:103EE0005907F0915A07E60FF71F80915D079091EF
:103EF0005E078E1B9F0BCA9795958795959587951D
:103F0000860F971F9093560780935507240F351FF0
:103F10002134B1E03B0714F020E431E0309358073E
:103F200020935707E8E0E98310E1E12EF12C298185
:103F3000F0E12F9F8001112435E03B835B8140E15C
:103F4000549FF00111248091570790915807805C8D
:103F50009F4F9595879595958795B7010E94253533
:103F6000E81BF90B80915507909156079595879519
:103F700095958795B7010E94253520E144EF5EE1D4
:103F8000BF01D801A81BB90BCD010E940319BB8149
:103F9000B150BB83BF3F91F6E981E150E983EF3F28
:103FA00031F6009155071091560774E01595079565
:103FB0007A95E1F75801FFEFAF1ABF0A6801E4E014
:103FC000CC0CDD1CEA95E1F7E0915507F09156071E
:103FD00020915707309158073A832983CF0164E035
:103FE000959587956A95E1F70896801791070CF4E7
:103FF000C2C154E0359527955A95E1F73A83298354
:10400000EE24EA94E00E809157079091580744E01F
:10401000959587954A95E1F7049649815A818417C9
:1040200095070CF49FC16981802F0E94871988230E
:10403000D9F169818E2D0E948719982E698161506E
:10404000802F0E948719F82E69818A2D0E94871976
:10405000882E69816F5F802F0E9487192F2D220F74
:1040600064E0969EA0011124242B282978E0879FE4
:10407000C0011124282B809157079091580769811E
:104080007A8134E0660F771F3A95E1F7681B790B68
:10409000809155079091560744EF5EE1D601A81B29
:1040A000B90BCD010E940F19E981FA813196FA838B
:1040B000E983A9CF80E80E943819882309F44ECCFF
:1040C00080E190E047CC8091650790916607813E42
:1040D0002FEF92070CF48CCC029786CC80E40E94E0
:1040E0003819882309F484CC80EF9FEF90935A0706
:1040F0008093590710926B0780916D07811130C032
:1041000080916F0781112CC080916E07811128C0AA
:1041100060915F0770916007685F7F4F04E075955D
:1041200067950A95E1F780915D0790915E070C967F
:1041300024E0959587952A95E1F70E9487198111CA
:1041400009C0809161079091620780969093620701
:104150008093610781E080936C0781E090E044CC1C
:104160008091650790916607803291050CF040CCF4
:1041700002963ACC10926F0781E08093710748CC89
:1041800080E20E943819882309F478CC80EE9FEFF2
:1041900071CC80917507882309F470CC81E08093FD
:1041A0006F0790E19093760710926D0780936E07EA
:1041B00065CC1092720710926A0781E080936907BC
:1041C00081CC109274079ECC97FFBDCC10926D07E6
:1041D00081E080936E07B7CC30E020E0EECC90E039
:1041E00080E026CD813A5FEF95079CF1039790938D
:1041F00068078093670720916F07222339F0209189
:104200007607222349F1225020937607311145CDBC
:1042100080916507909166079C0197FF04C0222753
:104220003327281B390B223031050CF43EC0209176
:10423000D6013091D70123703327232B09F0B0CD5D
:10424000181619066CF50197909366078093650719
:10425000A7CD80EA9FEFCBCF632F6550770BAB01E3
:10426000681779070CF4AC0150936807409367070F
:10427000CDCFA11095CD80915D0790915E0744E070
:10428000959587954A95E1F76C2D0E9487198823AB
:1042900009F486CD809161079091620744967CCDA8
:1042A000009709F47DCD0196CFCF1092660710924A
:1042B000650776CD80915D0790915E070B9624E0AF
:1042C000959587952A95E1F7602F0E948719882395
:1042D00009F484CD809161079091620708977ACDA7
:1042E000181619060CF090CD80915F079091600729
:1042F000089614E0959587951A95E1F7880F109226
:1043000063078093640710926807109267076EE155
:1043100070E080E590E00E94E11876CD109266078B
:104320001092650780915D0790915E070696807FE9
:1043300020916B0731E02327A4E02A9F90011124EC
:10434000820F931FB5E0880F991FBA95E1F76BCDE7
:10435000009709F49DCD019697CD009709F4A5CD5E
:1043600001969FCD0F5F1F4FFFEFAF1ABF0A20E1ED
:10437000C20ED11C29CE6091890770918A074981AC
:104380005A81641B750B8091870790918807209153
:10439000360742EB5EE18E1B9F0B0E940F19C09007
:1043A000D601D090D701C60187709927892B61F477
:1043B000809181018F5F8170809381018091800164
:1043C0008F5F837080938001809135078823C9F0C7
:1043D0006091330770913407809157079091580787
:1043E000681B790B8091310790913207E091550756
:1043F000F091560724E04CE752E28E1B9F0B0E947F
:104400000F19A5E0BA2EB9E07B2E7B9CB0011124D8
:104410006E577E4F7A836983DB0118969C901897BC
:1044200092FE56C00D911C91119780915507909165
:104430005607081B190B1296ED90FC9080915707B8
:1044400090915807E81AF90AB92DB370AB2E2B2FAB
:104450004AE552E2B701C8010E940F1990FC1CC046
:10446000F8E08F2E912CE981FA813696FA83E98360
:10447000A981BA818D919C91881699064CF5B40159
:104480006E0D7F1D2A2D4AE552E2C8010E940F19C8
:10449000B8E08B0E911CECCFE8E08E2E912CE981D8
:1044A000FA813496FA83E983A981BA818D919C912E
:1044B0008816990668F42A2D4AE552E2B701C80128
:1044C000880D991D0E940F19B8E08B0E911CECCF3E
:1044D000BA94EFEFBE1299CFF3E0CF22DD24CD28BE
:1044E00041F480917F018F5F63E00E9405359093D6
:1044F0007F0109E516E047E3E42E47E0F42E51E0A2
:10450000452E57E0552E61E0662E67E0762E75E069
:10451000A72ED8015A968C91882309F482C08091E5
:10452000D60180FD5EC06801B12CF60166817781FD
:10453000D80158968D909C90681579054CF56A5F66
:104540007F4FF60177836683409157075091580754
:104550002090550730905607D8015B969C905B974A
:1045600012962D913C9113978D919C91A481B581C8
:10457000992009F1E1E09E1609F498C1205F3F4FB0
:104580002A1B3B0BD901A41BB50B861B970B98C1AB
:10459000959487949594879460E070E0CB018114A2
:1045A000910479F20E94CE339401990C440B550B7F
:1045B0000E94A234C6CFF901E61BF70BBF01641BB2
:1045C000750B8A0F9B1F20E042EE52E2821993097D
:1045D0000E940919B394F4E0CF0ED11C24E0B2126A
:1045E000A4CFD8015B968C915B97282F220F280FC0
:1045F00080917F01280F12966D917C911397809185
:10460000570790915807681B790B8D919C91E09109
:104610005507F091560748E351E28E1B9F0B0E940D
:104620000F19F2018781882309F44BC08091D601CC
:1046300080FD27C08581181624F58681811121C04F
:104640006281738184E0759567958A95E1F7808131
:10465000918104962481FA2D2F02800D911D112441
:1046600024E0959587952A95E1F70E94871988237C
:1046700009F42BC1D20114968C911497819514964C
:104680008C93F201858122E018160CF420E08091D1
:104690008101280FD20112966D917C911397809120
:1046A000570790915807681B790B8D919C91E09169
:1046B0005507F091560746E151E28E1B9F0B0E9471
:1046C0000F19F70184818823B1F062817381809191
:1046D000570790915807681B790B80819181E09171
:1046E0005507F0915607209180014CE752E28E1B4E
:1046F0009F0B0E940F19045E1F4FF5E0EF0EF11C97
:1047000028E0420E511C6016710609F002CF80911C
:104710006907882309F4A0C000915D0710915E0726
:104720008091550790915607081B190BE0905F0781
:10473000F09060078091570790915807E81AF90A9E
:1047400031E7E316F104CCF0809183079091840760
:104750009093620780936107809185079091860707
:1047600090936407809363070E9472198091750784
:10477000811103C089E08093D90180916F0788235C
:10478000B9F120916B074AEF420360011124C00E7A
:10479000D11E50917607652F6E0D7F2D711D7A8386
:1047A0006983809175078230C0F020E049E355E2CB
:1047B0006B507109C60101960E94FD188091750722
:1047C000833058F020E049E355E269817A816C50EA
:1047D0007109C60107960E94FD1869817A816950A6
:1047E000710920E049E355E2C60104960E94FD18D4
:1047F00020916B0780917107811191C0245F47EE72
:1048000053E2B701C8010E94031980916B07282F5A
:10481000220F280F220F80917407280F80916D07B7
:1048200074E0879FC001112430916E07311102C0DE
:1048300030916F07A5E03A9F800D911D1124909152
:10484000710731E09327989F200D112447EE53E222
:10485000B701C8010E940919FFE0F98320E04BEA83
:1048600055E270E060E0A98138E0A39FC001112407
:104870000E940319B981B150B983BF3F79F71982FA
:1048800080917507E981E81708F0C8C0F7E0EF9F4D
:10489000C00111242AE043E655E270E060E0029690
:1048A0000E940F1929812F5F2983EACF205F3F4F94
:1048B0002A1B3B0BD901A41BB50B4096860F971FF3
:1048C00020E042EE52E2BD0181CEF20162817381AD
:1048D000A4E075956795AA95E1F76F5F8081918156
:1048E00004962481FA2D2F02800D911D1124B4E02D
:1048F00095958795BA95E1F70E948719882309F461
:10490000B9CED20114962C9114978D919C91119748
:10491000820F911D27FD9A958D939C93B2CE220F05
:1049200080918101280F45EE52E2B701C80102973C
:104930000E94FD18EDE5F7E0FA83E98369E6462E6B
:1049400067E0562E70E1C72ED12CEDE08E2E912C13
:10495000A12CB12C3701FAE06F0E711C78012FE009
:10496000E20EF11CA981BA815C968D919C915D97B4
:104970008330910584F101975D969C938E935C97AB
:10498000A981BA815A968D919C915B97029797FD68
:104990002CC05B969C938E935A97E981FA81648D23
:1049A000758D660D771D828D938D20916B07222367
:1049B00079F120E042EE52E2D801A81BB90BCD01FB
:1049C0000E940919E981FA813496FA83E9834E1627
:1049D0005F0641F641CF8E3FBFEF9B078CF60196F5
:1049E000E981FA81958F848FCBCFE981FA81D38ECB
:1049F000C28E0E94CE33A50194010E94A23464505D
:104A00007109A981BA815D967C936E935C97C5CF3D
:104A100020E042EE52E28E0D9F1DD2CF21E041E018
:104A200060E08BE50E947D1B35E0398306E010E0F5
:104A3000498156E0459FC001112488962091B90113
:104A4000B801621B7109461717060CF4F1C02BE080
:104A500043E655E270E060E00E940F1979817150E1
:104A600079837F3F29F780913607882349F02DE02D
:104A700043E655E270E060E08CE190E00E940F199F
:104A800080917507882309F4A2C280915D079091F7
:104A90005E07E0905F07F0906007D7011296B88735
:104AA000AF8350916B0741E0252F2427B0E12B9F66
:104AB00090011124280F391F1901E0E15E9F201891
:104AC000310811248C010E5F1F4F20913107309166
:104AD0003207B901685F7F4F0617170720F50A965E
:104AE0002817390700F580913307909134079C010E
:104AF000205F3F4F6F81788562177307A4F4970199
:104B0000225F3F4F8217930774F480913507882303
:104B100051F0109235074093360768EC70E084EA54
:104B200091E00E94E11880918707909188079C018D
:104B30002C5F3F4F0C960817190788F5C801089697
:104B40002817390760F58091890790918A079C01A1
:104B5000205F3F4FAF81B885A217B30704F59701D7
:104B6000225F3F4F82179307D4F480E80E942D19EB
:104B70008823A9F080913607882389F080917507F2
:104B80008093BC0181E08093BB011092BA018091B7
:104B9000C2018F5F8093C20186E08093D90145E016
:104BA000742E55E0652E2801B8E04B0E511C5701BC
:104BB000EEE0AE0EB11C9101205F3F4F3C832B8392
:104BC000A701405F5F4F5E834D83C72CD12C6C9C47
:104BD000F0016D9CF00D1124E95CF84F848188236D
:104BE00009F46CC0808191812281338140917107E9
:104BF000442301F16B817C8186179707D8F4AC01BF
:104C0000465F5F4F24163506A8F4AD81BE812A1792
:104C10003B0784F4A901445F5F4F6F817885641777
:104C2000750744F420916B07211145C0019744C0DA
:104C30002CE00ECF8415950508F040C00A960817A1
:104C40001907E0F52A153B05CCF5245F3F4F8F810E
:104C500098858217930794F56C9CF0016D9CF00D7C
:104C60001124E95CF84F14828091B901815080933E
:104C7000B9018091B8018F5F8093B8018091BD0127
:104C80008F5F8093BD0168EC70E080E991E00E9445
:104C9000E1182091B9018091BE019091BF01A091CE
:104CA000C001B091C101222309F499C088539F4FDC
:104CB000AF4FBF4F98C0019691838083D60133E0F8
:104CC000AA0FBB1F3A95E1F7BA83A983FD01EF5FF5
:104CD000F84F8781882309F466C080809180E28044
:104CE000F3802B813C8182169306A8F4C4010896B8
:104CF0002816390680F44D815E81E416F5065CF4D1
:104D0000C70108966F8178856817790724F4809128
:104D10007107811171C0E981FA81EF5FF84F168246
:104D20008414950408F03FC088E0880E911C081593
:104D30001905C8F5EA14FB04B4F598E0E90EF11C76
:104D4000AF81B885AE15BF0574F5E981FA81EF5FD3
:104D5000F84F7F018581181634F580916A0781111B
:104D600022C00E94721928E230E030936807209335
:104D7000670780915D0790915E07D7012D913C9167
:104D8000821B930B97FD94C08630910514F085E04B
:104D900090E0029725E0880F991F2A95E1F79093FC
:104DA0006607809365078CE18C9DF0018D9DF00D69
:104DB0001124E75AF94F828D882309F4BFC0A38DCF
:104DC0004081518122813381808D918DAA2309F404
:104DD00072C0A13009F49CC0481B590B9BC08C5079
:104DE0009E4FAF4FBF4F8093BE019093BF01A093E2
:104DF000C001B093C10162CF85818150858371E08C
:104E0000768318160CF48CCF80915D0790915E0725
:104E100020916B07222361F194012F5F3F4F318373
:104E200020830797281739070CF47ACF17828091CF
:104E30007507833040F58F5F809375078091BE01C1
:104E40009091BF01A091C001B091C101C296A11D76
:104E5000B11D8093BE019093BF01A093C001B09398
:104E6000C10164E670E088EC90E00E94E11858CF40
:104E7000940121503109318320830F9682179307C3
:104E80000CF44ECFD3CF8091BE019091BF01A09181
:104E9000C001B091C1018C599F4FAF4FBF4F80935C
:104EA000BE019093BF01A093C001B093C101C6CFD2
:104EB00080EA9FEF74CF281B390B60E170E0441546
:104EC0005505E0F5460F571F04171507B8F52A15C5
:104ED0003B05A4F5820F931FEF81F885E817F907CA
:104EE0006CF580916F07882349F1AA23B9F03091BE
:104EF000650720916607A13009F482C0832F922FA5
:104F00008F3CFFEF9F0714F48FEC9FEF059780C055
:104F1000405F5F4FBC0180E190E0D1CF8091670797
:104F2000909168078C35910514F08BE590E005961B
:104F300090936807809367070E94691B80916A07B6
:104F4000811141C0E9E0EC9DC001ED9D900D11245F
:104F50009C012E573E4F7901D90118968C9182FF02
:104F600032C07E9EF0011124EE57FE4F8081918168
:104F70008415950540F524813581820F931F08170C
:104F8000190708F5828193818A159B05E4F426812F
:104F90003781820F931FEF81F885E817F9079CF49A
:104FA0000E94721920915F0730916007D701129615
:104FB0008D919C912817390734F4E8E2F0E0F093E2
:104FC0006807E09367077A94FFEF7F12FECD28967B
:104FD0000FB6F894DEBF0FBECDBFDF91CF911F910A
:104FE0000F91FF90EF90DF90CF90BF90AF909F9088
:104FF0008F907F906F905F904F903F902F9008958B
:10500000832F922F8233910514F081E390E005966F
:1050100090936607809365078FCF20E040E25BE1C5
:1050200062E070E08BE290E00E9403192091D801C9
:1050300048ED5AE170E060E085E290E00E940319DB
:1050400020E046E75AE160E370E088E290E00E94E9
:1050500003196EEB71E08BE490E00E94201B86E464
:1050600090E00E941E1B20E08A3E29F542E65AE1AC
:105070006CE170E085E190E00E94031920E04CE3D0
:105080005AE16CE170E08EE190E00E94031921E0AA
:1050900042E06EE187E30E947D1B8CE00E942D19A7
:1050A000882381F081E08093D90164E170E089EA8E
:1050B00091E00C94E1184CE55AE16CE170E08CE170
:1050C00090E0DACF0895FF920F931F93CF93DF9371
:1050D000EC01F62E08811981C8010E948C34F81663
:1050E00021F06F2DC8010E949434CE01DF91CF9141
:1050F0001F910F91FF9008950F931F93CF93DF930C
:1051000000D0CDB7DEB78C0184E490E09A83898328
:10511000F8016081CE0101960E94632885E490E049
:105120009A838983F8016181CE0101960E946328E8
:10513000C8010F900F90DF91CF911F910F910895AB
:10514000AF92BF92CF92DF92EF92FF920F931F9395
:10515000CF93DF9300D0CDB7DEB78B016B0124E096
:10516000C20ED11C7B015C01A61AB70AC5018E0DC7
:105170009F1D9A838983F70161917F01CE0101967A
:105180000E946328EC14FD0489F7C8010F900F906A
:10519000DF91CF911F910F91FF90EF90DF90CF9013
:1051A000BF90AF9008950F931F93CF93DF9300D0DC
:1051B000CDB7DEB78B019A838983FB016081CE0175
:1051C00001960E946328C8010F900F90DF91CF9144
:1051D0001F910F910895CF93DF9300D000D0CDB7EA
:1051E000DEB78091C201873208F04CC022E042E075
:1051F0006AE18EE40E947D1B83E220E04DE156E2ED
:1052000061E170E090E00E94031921E042E061E377
:105210008BE20E947D1B19821A821B821C82BE01B6
:105220006F5F7F4F8BE490E00E94201B4091BE0196
:105230005091BF016091C0017091C10189819A8133
:10524000AB81BC8184179507A607B70760F46DEBA7
:1052500071E086E490E00E94D3286EEB71E08BE46D
:1052600090E00E94A0288CE00E942D19882319F05C
:1052700081E08093D9010F900F900F900F90DF91F4
:10528000CF9108958FE2B9CF2F923F924F925F92C4
:105290006F927F928F929F92AF92BF92CF92DF9246
:1052A000EF92FF920F931F93CF93DF93CDB7DEB7AB
:1052B00060970FB6F894DEBF0FBECDBF8091D601C8
:1052C0009091D70164E170E00E941135892B69F556
:1052D0001092BA018091B801E0917E01882309F40F
:1052E00074C081508093B8018091BE019091BF013C
:1052F000A091C001B091C1014496A11DB11D809340
:10530000BE019093BF01A093C001B093C10181E0A1
:105310008E0F80937E01F0E0E855F14EE49166E94E
:1053200070E08E2F90E00E94E11862EC71E084E45E
:1053300090E00E94D3286DEB71E085E490E00E943C
:10534000D3286EEB71E087E490E00E94A028809162
:10535000C201873208F071C020E04AE35EE164E0F8
:1053600070E083E290E00E94031922E042E06DE0E9
:105370008EE40E947D1B21E042E061E38BE20E940B
:105380007D1B8091BB01882309F469C0D090B801CE
:10539000E090BC01ED0C2E2D39EF32038001112479
:1053A0000F5B1F4FF12CFE1409F459C020E0FD14CF
:1053B00008F021E048E05EE16BE170E0C8010E9486
:1053C0000F19F394025F1F4FEECF8091BC01882329
:1053D00079F081508093BC018091BE019091BF0112
:1053E000A091C001B091C1014E96A11DB11D87CF02
:1053F00091E09093BA011092BB0180917D018927C1
:1054000080937D01EA3080F481E08E0F80937E01ED
:10541000F0E0E855F14E849168EC70E090E00E9475
:10542000E1188AE080937E018091C201873208F4FE
:105430007CCF89E08093D90178CF1A821982CE017E
:1054400001960E947C2819821A821B821C82BE014E
:105450006F5F7F4F87E490E00E94A0288CCF8091FF
:10546000BA01882309F47BC280917D01882349F029
:1054700020E04EE95DE16DE170E086E290E00E949F
:105480000F198CE00E942D19882309F468C210922C
:105490007E0164E170E089EA91E00E94E1181092D7
:1054A0005E0710925D071092600710925F0780E818
:1054B00090E09093620780936107109264071092C6
:1054C00063071092660710926507109268071092A2
:1054D000670781E08093690780936A0710927207DB
:1054E0001092730710926B0710926C0710926D0761
:1054F00010926E0710926F078093700710927107D9
:1055000083E080937507109276070DE517E090E130
:10551000C92ED12CE12CF12C0E94CE334B015C0121
:105520000E94CE33A70196010E94A234F801738F26
:10553000628FC501B401A70196010E94A234F8014F
:10554000758F648F0C5F1F4FF7E009361F0721F737
:10555000109256071092550780E491E090935807F7
:105560008093570710925A071092590710925C07C0
:1055700010925B071092B90115E0D12E00E1402E88
:10558000512C612C712C80E1282E312CED2CF12C2A
:105590002CE12E9DF0012F9DF00D1124E75AF94FBB
:1055A00011821082138212828F01B4E0CB2E0E94EE
:1055B000CE334B015C010E94CE33A30192010E94C5
:1055C000A234F80175836483C501B401A30192017B
:1055D0000E94A234F80177836683CA940C5F1F4F40
:1055E000C110E5CF2CE12E9DF0012F9DF00D11246F
:1055F000E75AF94F118E108E128E138E39E03E9DB0
:10560000F0013F9DF00D1124EE57FE4F11821082E4
:1056100013821282358224823782268241E04087BB
:10562000F701A3E0EE0FFF1FAA95E1F7EF5FF84F38
:10563000118210821382128217828EE18583448345
:10564000168295E09E9DF0019F9DF00D1124E95C6E
:10565000F84F11821082138212821482DA94EFEFD3
:10566000DE1294CFE091C201F0E0EE0FFF1FEE5E7C
:10567000FE4FA080B180F8E4AF0EB11CF50184911B
:1056800090E044244394E8E06E2E712C8F3F09F49F
:1056900063C1F501E90FF11D849104910F7162E07E
:1056A000562E590EE1E0E90FEA0DFB2DF11D149184
:1056B0001F71E52DF0E0807E803409F465C0D0F4E0
:1056C0008823C9F1803209F44EC020E1129FF00115
:1056D0001124F0933207E093310730E1039F8001FA
:1056E000112410933407009333074092350710922A
:1056F000360733C0803809F488C0803A09F403C102
:10570000803619F743E0542E590EEA0DFB1DE49143
:10571000812F90E010E0E03408F05FC09E838D831D
:1057200018870F8320E04E2F6D817E818F819885B1
:105730000E94B51912C0110F1092830710938407AD
:10574000000F10928507009386071092610710934F
:1057500062071092630700936407F501E50DF11DE0
:105760008491952D93CF20E1129FF0011124F093A5
:105770008807E093870730E1039F8001112410938D
:105780008A0700938907E9CFE1E0F7E090E080E045
:10579000278121111CC053E0880F991F5A95E1F70A
:1057A000DC01AF5FB84F40E1149FF0011124119666
:1057B000FC93EE9380E1089F80011124085F1F4F46
:1057C00013961C930E93129717964C92C6CF019680
:1057D000389686309105E1F6C0CF4E2F4F73E03CEE
:1057E00050F49A8789871C870B8721E069857A8521
:1057F0008B859C859DCF9E878D87188B0F8722E098
:105800006D857E858F85988993CF3197EA0DFB1D35
:10581000E490E2E8F1E090E080E0208522FD6CC0B9
:10582000F12C25E0F594E7942A95E1F7EFEFEE1AD5
:10583000FE0A34E0EE0CFF1C3A95E1F7F0E11F9F01
:105840001001112449E0489F9001499F300D112417
:10585000C9018E579E4F6C01FC0131822082F0E11C
:105860000F9F40011124FC01938282826FEF600F31
:10587000812F0E948719882341F027E0F6012087B5
:10588000F582E4827782668268CF61E0600F812FC3
:105890000E948719882369F025E0F6012087F582A8
:1058A000E4827782668238E0830E911C9382828242
:1058B00054CF602F8FEF810F0E948719882341F00A
:1058C00024E0F601208775826482F782E68245CF64
:1058D000602F81E0810F0E948719882309F43DCF52
:1058E00026E0F601208775826482F782E682C10194
:1058F00008969183808331CF019639968630910541
:1059000009F08BCF2ACF85E035E0389FD0011124F4
:10591000A95CB84F9D012C5F3F4F14969C91149742
:10592000911117C08091B9018F5F8093B90140E157
:10593000049FF00111241396FC93EE93129780E1DB
:10594000189FF00111243296ED93FC93F9014082E7
:1059500004CF8150C8F601CF87E08093D9016096CB
:105960000FB6F894DEBF0FBECDBFDF91CF911F9170
:105970000F91FF90EF90DF90CF90BF90AF909F90EE
:105980008F907F906F905F904F903F902F900895F1
:105990001F93CF93DF9300D0CDB7DEB70E94F219EB
:1059A00020E040EA5BE169E070E083E390E00E9480
:1059B0000F1980E10E942D19882341F00E942719B8
:1059C00064E170E08CE291E00E94E11880E80E94BE
:1059D0002D1981110E9422191091C30189E0189F8D
:1059E000B00111246E5E7F4F20E04EE25CE186E361
:1059F00090E00E94FD188CE00E942D19882391F000
:105A000082E090E09A838983612FCE0101960E9403
:105A1000632881E08093D90164E170E089EA91E034
:105A20000E94E1180F900F90DF91CF911F91089580
:105A30001F920F920FB60F9211248F939F93809114
:105A4000E1009091E100937F9093E10083FF0FC00C
:105A50001092E90091E09093EB001092EC0092E339
:105A60009093ED001092F80198E09093F00082FF7F
:105A700022C093E09093E9009091F200992319F0ED
:105A80009AE39093E8009091E901992341F0909175
:105A9000E90191509093E901911101C05D9A9091B3
:105AA000F701992341F09091F70191509093F701FC
:105AB000911101C0289A84FF18C08091E2008E7E67
:105AC00081608093E2008091E1008F7E8093E1000D
:105AD0008091EA018E7E80618093EA019F918F918F
